:03000000020800F3
:0C080000787FE4F6D8FD758111020847EE
:1008DD00007EFFC3C3FF7E00000043FFFF03000047
:1008ED000063C7CFDBF363000042DBDBDBEF6600A9
:1008FD00003E46FFFF06060000F6F7D3D3DFDE000D
:10090D00007EFFDBDBDF4E0000C0C0C7FFF8C0007C
:10091D0000FFFFDBDBFFFF000072FBDBDBFF7E0078
:10094D00080A010204081020408001090001080076
:10092D00E508700620B703750801E508B401083025
:10093D00B7050509E4F508E509B40A03E4F509224C
:10088C00E4E50975F008A4ACF0FDE5092401FFE4EA
:10089C0033FEEF7803C333CE33CED8F9FFC3ED9FCD
:1008AC00EE6480F8EC6480985026E50975F008A495
:1008BC00FEC3ED9E240AF8E6F4F58074DD2DF58276
:1008CC0074083CF583E493F5900DBD00010C80BADF
:0108DC0022F9
:08095E0012088C12092D80F82B
:10080C0002095EE493A3F8E493A34003F68001F29B
:10081C0008DFF48029E493A3F85407240CC8C333ED
:10082C00C4540F4420C8834004F456800146F6DFBC
:10083C00E4800B010204081020408090094DE47EF6
:10084C00019360BCA3FF543F30E509541FFEE493B1
:10085C00A360010ECF54C025E060A840B8E493A378
:10086C00FAE493A3F8E493A3C8C582C8CAC583CAA3
:10087C00F0A3C8C582C8CAC583CADFE9DEE780BE5B
:01095D000099
:00000001FF
